{
  "_format": "hh-sol-artifact-1",
  "contractName": "viewHelper",
  "sourceName": "contracts/viewHelper.sol",
  "abi": [
    {
      "inputs": [],
      "name": "viewPool",
      "outputs": [],
      "stateMutability": "view",
      "type": "function"
    },
    {
      "inputs": [],
      "name": "viewUserAddresses",
      "outputs": [],
      "stateMutability": "view",
      "type": "function"
    },
    {
      "inputs": [
        {
          "internalType": "address",
          "name": "token",
          "type": "address"
        },
        {
          "internalType": "address",
          "name": "user",
          "type": "address"
        }
      ],
      "name": "viewUserBalance",
      "outputs": [
        {
          "internalType": "uint256",
          "name": "",
          "type": "uint256"
        }
      ],
      "stateMutability": "view",
      "type": "function"
    }
  ],
  "bytecode": "0x6080604052348015600f57600080fd5b506102a78061001f6000396000f3fe608060405234801561001057600080fd5b50600436106100415760003560e01c806347c672a01461004657806384e78c6d14610076578063dde1634814610080575b600080fd5b610060600480360381019061005b919061017a565b61008a565b60405161006d91906101d3565b60405180910390f35b61007e610113565b005b610088610115565b005b6000808390508073ffffffffffffffffffffffffffffffffffffffff166370a08231846040518263ffffffff1660e01b81526004016100c991906101fd565b602060405180830381865afa1580156100e6573d6000803e3d6000fd5b505050506040513d601f19601f8201168201806040525081019061010a9190610244565b91505092915050565b565b565b600080fd5b600073ffffffffffffffffffffffffffffffffffffffff82169050919050565b60006101478261011c565b9050919050565b6101578161013c565b811461016257600080fd5b50565b6000813590506101748161014e565b92915050565b6000806040838503121561019157610190610117565b5b600061019f85828601610165565b92505060206101b085828601610165565b9150509250929050565b6000819050919050565b6101cd816101ba565b82525050565b60006020820190506101e860008301846101c4565b92915050565b6101f78161013c565b82525050565b600060208201905061021260008301846101ee565b92915050565b610221816101ba565b811461022c57600080fd5b50565b60008151905061023e81610218565b92915050565b60006020828403121561025a57610259610117565b5b60006102688482850161022f565b9150509291505056fea2646970667358221220a3e6ad6248f4d1887935cd7ecf61662091161663df5355bc6bae7ac980f321f464736f6c634300081c0033",
  "linkReferences": {},
  "deployedLinkReferences": {}
}