{
  "_format": "hh-sol-artifact-1",
  "contractName": "PoolFactory",
  "sourceName": "contracts/poolFactory.sol",
  "abi": [
    {
      "inputs": [
        {
          "internalType": "address",
          "name": "_addressChikorita",
          "type": "address"
        },
        {
          "internalType": "address",
          "name": "_addressCynda",
          "type": "address"
        },
        {
          "internalType": "uint256",
          "name": "_initialLiquidity",
          "type": "uint256"
        }
      ],
      "name": "createPool",
      "outputs": [],
      "stateMutability": "nonpayable",
      "type": "function"
    },
    {
      "inputs": [],
      "name": "getAllPools",
      "outputs": [
        {
          "components": [
            {
              "internalType": "address",
              "name": "poolAddress",
              "type": "address"
            },
            {
              "internalType": "address",
              "name": "tokenChikorita",
              "type": "address"
            },
            {
              "internalType": "address",
              "name": "tokenCynda",
              "type": "address"
            }
          ],
          "internalType": "struct PoolFactory.PoolInfo[]",
          "name": "",
          "type": "tuple[]"
        }
      ],
      "stateMutability": "view",
      "type": "function"
    },
    {
      "inputs": [],
      "name": "getPoolCount",
      "outputs": [
        {
          "internalType": "uint256",
          "name": "",
          "type": "uint256"
        }
      ],
      "stateMutability": "view",
      "type": "function"
    },
    {
      "inputs": [
        {
          "internalType": "uint256",
          "name": "",
          "type": "uint256"
        }
      ],
      "name": "pools",
      "outputs": [
        {
          "internalType": "address",
          "name": "poolAddress",
          "type": "address"
        },
        {
          "internalType": "address",
          "name": "tokenChikorita",
          "type": "address"
        },
        {
          "internalType": "address",
          "name": "tokenCynda",
          "type": "address"
        }
      ],
      "stateMutability": "view",
      "type": "function"
    }
  ],
  "bytecode": "0x6080604052348015600f57600080fd5b50611ce18061001f6000396000f3fe608060405234801561001057600080fd5b506004361061004c5760003560e01c806351810fb5146100515780638eec5d701461006d578063ac4afa381461008b578063d88ff1f4146100bd575b600080fd5b61006b60048036038101906100669190610529565b6100db565b005b61007561027c565b604051610082919061058b565b60405180910390f35b6100a560048036038101906100a091906105a6565b610288565b6040516100b4939291906105e2565b60405180910390f35b6100c5610322565b6040516100d29190610719565b60405180910390f35b60008383836040516100ec90610483565b6100f89392919061073b565b604051809103906000f080158015610114573d6000803e3d6000fd5b509050600060405180606001604052808373ffffffffffffffffffffffffffffffffffffffff1681526020018673ffffffffffffffffffffffffffffffffffffffff1681526020018573ffffffffffffffffffffffffffffffffffffffff16815250908060018154018082558091505060019003906000526020600020906003020160009091909190915060008201518160000160006101000a81548173ffffffffffffffffffffffffffffffffffffffff021916908373ffffffffffffffffffffffffffffffffffffffff16021790555060208201518160010160006101000a81548173ffffffffffffffffffffffffffffffffffffffff021916908373ffffffffffffffffffffffffffffffffffffffff16021790555060408201518160020160006101000a81548173ffffffffffffffffffffffffffffffffffffffff021916908373ffffffffffffffffffffffffffffffffffffffff160217905550505050505050565b60008080549050905090565b6000818154811061029857600080fd5b90600052602060002090600302016000915090508060000160009054906101000a900473ffffffffffffffffffffffffffffffffffffffff16908060010160009054906101000a900473ffffffffffffffffffffffffffffffffffffffff16908060020160009054906101000a900473ffffffffffffffffffffffffffffffffffffffff16905083565b60606000805480602002602001604051908101604052809291908181526020016000905b8282101561047a57838290600052602060002090600302016040518060600160405290816000820160009054906101000a900473ffffffffffffffffffffffffffffffffffffffff1673ffffffffffffffffffffffffffffffffffffffff1673ffffffffffffffffffffffffffffffffffffffff1681526020016001820160009054906101000a900473ffffffffffffffffffffffffffffffffffffffff1673ffffffffffffffffffffffffffffffffffffffff1673ffffffffffffffffffffffffffffffffffffffff1681526020016002820160009054906101000a900473ffffffffffffffffffffffffffffffffffffffff1673ffffffffffffffffffffffffffffffffffffffff1673ffffffffffffffffffffffffffffffffffffffff168152505081526020019060010190610346565b50505050905090565b6115398061077383390190565b600080fd5b600073ffffffffffffffffffffffffffffffffffffffff82169050919050565b60006104c082610495565b9050919050565b6104d0816104b5565b81146104db57600080fd5b50565b6000813590506104ed816104c7565b92915050565b6000819050919050565b610506816104f3565b811461051157600080fd5b50565b600081359050610523816104fd565b92915050565b60008060006060848603121561054257610541610490565b5b6000610550868287016104de565b9350506020610561868287016104de565b925050604061057286828701610514565b9150509250925092565b610585816104f3565b82525050565b60006020820190506105a0600083018461057c565b92915050565b6000602082840312156105bc576105bb610490565b5b60006105ca84828501610514565b91505092915050565b6105dc816104b5565b82525050565b60006060820190506105f760008301866105d3565b61060460208301856105d3565b61061160408301846105d3565b949350505050565b600081519050919050565b600082825260208201905092915050565b6000819050602082019050919050565b61064e816104b5565b82525050565b60608201600082015161066a6000850182610645565b50602082015161067d6020850182610645565b5060408201516106906040850182610645565b50505050565b60006106a28383610654565b60608301905092915050565b6000602082019050919050565b60006106c682610619565b6106d08185610624565b93506106db83610635565b8060005b8381101561070c5781516106f38882610696565b97506106fe836106ae565b9250506001810190506106df565b5085935050505092915050565b6000602082019050818103600083015261073381846106bb565b905092915050565b600060608201905061075060008301866105d3565b61075d60208301856105d3565b61076a604083018461057c565b94935050505056fe608060405234801561001057600080fd5b50604051611539380380611539833981810160405281019061003291906105e3565b600073ffffffffffffffffffffffffffffffffffffffff168373ffffffffffffffffffffffffffffffffffffffff161415801561009c5750600073ffffffffffffffffffffffffffffffffffffffff168273ffffffffffffffffffffffffffffffffffffffff1614155b6100db576040517f08c379a00000000000000000000000000000000000000000000000000000000081526004016100d290610693565b60405180910390fd5b606481101561011f576040517f08c379a000000000000000000000000000000000000000000000000000000000815260040161011690610725565b60405180910390fd5b826000806101000a81548173ffffffffffffffffffffffffffffffffffffffff021916908373ffffffffffffffffffffffffffffffffffffffff16021790555081600160006101000a81548173ffffffffffffffffffffffffffffffffffffffff021916908373ffffffffffffffffffffffffffffffffffffffff1602179055508060008054906101000a900473ffffffffffffffffffffffffffffffffffffffff1673ffffffffffffffffffffffffffffffffffffffff1663dd62ed3e33306040518363ffffffff1660e01b81526004016101fc929190610754565b602060405180830381865afa158015610219573d6000803e3d6000fd5b505050506040513d601f19601f8201168201806040525081019061023d919061077d565b101561027e576040517f08c379a00000000000000000000000000000000000000000000000000000000081526004016102759061081c565b60405180910390fd5b80600160009054906101000a900473ffffffffffffffffffffffffffffffffffffffff1673ffffffffffffffffffffffffffffffffffffffff1663dd62ed3e33306040518363ffffffff1660e01b81526004016102dc929190610754565b602060405180830381865afa1580156102f9573d6000803e3d6000fd5b505050506040513d601f19601f8201168201806040525081019061031d919061077d565b101561035e576040517f08c379a000000000000000000000000000000000000000000000000000000000815260040161035590610888565b60405180910390fd5b60008054906101000a900473ffffffffffffffffffffffffffffffffffffffff1673ffffffffffffffffffffffffffffffffffffffff166323b872dd3330846040518463ffffffff1660e01b81526004016103bb939291906108b7565b6020604051808303816000875af11580156103da573d6000803e3d6000fd5b505050506040513d601f19601f820116820180604052508101906103fe9190610926565b61043d576040517f08c379a00000000000000000000000000000000000000000000000000000000081526004016104349061099f565b60405180910390fd5b600160009054906101000a900473ffffffffffffffffffffffffffffffffffffffff1673ffffffffffffffffffffffffffffffffffffffff166323b872dd3330846040518463ffffffff1660e01b815260040161049c939291906108b7565b6020604051808303816000875af11580156104bb573d6000803e3d6000fd5b505050506040513d601f19601f820116820180604052508101906104df9190610926565b61051e576040517f08c379a000000000000000000000000000000000000000000000000000000000815260040161051590610a0b565b60405180910390fd5b806002819055508060038190555060035460025461053c9190610a5a565b600481905550505050610a9c565b600080fd5b600073ffffffffffffffffffffffffffffffffffffffff82169050919050565b600061057a8261054f565b9050919050565b61058a8161056f565b811461059557600080fd5b50565b6000815190506105a781610581565b92915050565b6000819050919050565b6105c0816105ad565b81146105cb57600080fd5b50565b6000815190506105dd816105b7565b92915050565b6000806000606084860312156105fc576105fb61054a565b5b600061060a86828701610598565b935050602061061b86828701610598565b925050604061062c868287016105ce565b9150509250925092565b600082825260208201905092915050565b7f496e76616c696420746f6b656e20616464726573732f61646472657373270000600082015250565b600061067d601e83610636565b915061068882610647565b602082019050919050565b600060208201905081810360008301526106ac81610670565b9050919050565b7f4d616b6520737572652074686520696e697469616c206c69717569646974792060008201527f69732061626f7665203130302e00000000000000000000000000000000000000602082015250565b600061070f602d83610636565b915061071a826106b3565b604082019050919050565b6000602082019050818103600083015261073e81610702565b9050919050565b61074e8161056f565b82525050565b60006040820190506107696000830185610745565b6107766020830184610745565b9392505050565b6000602082840312156107935761079261054a565b5b60006107a1848285016105ce565b91505092915050565b7f496e73756666696369656e7420616c6c6f77616e636520666f72204368696b6f60008201527f7269746100000000000000000000000000000000000000000000000000000000602082015250565b6000610806602483610636565b9150610811826107aa565b604082019050919050565b60006020820190508181036000830152610835816107f9565b9050919050565b7f496e73756666696369656e7420616c6c6f77616e636520666f722043796e6461600082015250565b6000610872602083610636565b915061087d8261083c565b602082019050919050565b600060208201905081810360008301526108a181610865565b9050919050565b6108b1816105ad565b82525050565b60006060820190506108cc6000830186610745565b6108d96020830185610745565b6108e660408301846108a8565b949350505050565b60008115159050919050565b610903816108ee565b811461090e57600080fd5b50565b600081519050610920816108fa565b92915050565b60006020828403121561093c5761093b61054a565b5b600061094a84828501610911565b91505092915050565b7f4368696b6f72697461207472616e73666572206661696c656400000000000000600082015250565b6000610989601983610636565b915061099482610953565b602082019050919050565b600060208201905081810360008301526109b88161097c565b9050919050565b7f43796e6461207472616e73666572206661696c65640000000000000000000000600082015250565b60006109f5601583610636565b9150610a00826109bf565b602082019050919050565b60006020820190508181036000830152610a24816109e8565b9050919050565b7f4e487b7100000000000000000000000000000000000000000000000000000000600052601160045260246000fd5b6000610a65826105ad565b9150610a70836105ad565b9250828202610a7e816105ad565b91508282048414831517610a9557610a94610a2b565b5b5092915050565b610a8e80610aab6000396000f3fe608060405234801561001057600080fd5b50600436106100885760003560e01c8063b52d5b1e1161005b578063b52d5b1e14610104578063d775553714610122578063de2724cf14610140578063f84fcba31461015e57610088565b80630ad0b7c11461008d5780634e291fb8146100ac5780639cd441da146100ca578063a932492f146100e6575b600080fd5b61009561017c565b6040516100a3929190610506565b60405180910390f35b6100b461018d565b6040516100c1919061052f565b60405180910390f35b6100e460048036038101906100df919061057b565b610193565b005b6100ee61048e565b6040516100fb919061052f565b60405180910390f35b61010c610494565b604051610119919061052f565b60405180910390f35b61012a61049d565b604051610137919061063a565b60405180910390f35b6101486104c1565b604051610155919061063a565b60405180910390f35b6101666104e7565b604051610173919061052f565b60405180910390f35b600080600254600354915091509091565b60025481565b6000821180156101a35750600081115b6101e2576040517f08c379a00000000000000000000000000000000000000000000000000000000081526004016101d9906106d8565b60405180910390fd5b6000600254600354600254856101f89190610727565b610202919061075b565b61020c91906107cc565b905060008282101561022957818361022491906107fd565b610236565b828261023591906107fd565b5b905064e8d4a51000811115610280576040517f08c379a0000000000000000000000000000000000000000000000000000000008152600401610277906108a3565b60405180910390fd5b60008054906101000a900473ffffffffffffffffffffffffffffffffffffffff1673ffffffffffffffffffffffffffffffffffffffff166323b872dd3330876040518463ffffffff1660e01b81526004016102dd939291906108e4565b6020604051808303816000875af11580156102fc573d6000803e3d6000fd5b505050506040513d601f19601f820116820180604052508101906103209190610953565b61035f576040517f08c379a0000000000000000000000000000000000000000000000000000000008152600401610356906109cc565b60405180910390fd5b600160009054906101000a900473ffffffffffffffffffffffffffffffffffffffff1673ffffffffffffffffffffffffffffffffffffffff166323b872dd3330866040518463ffffffff1660e01b81526004016103be939291906108e4565b6020604051808303816000875af11580156103dd573d6000803e3d6000fd5b505050506040513d601f19601f820116820180604052508101906104019190610953565b610440576040517f08c379a000000000000000000000000000000000000000000000000000000000815260040161043790610a38565b60405180910390fd5b83600260008282546104529190610727565b92505081905550826003600082825461046b9190610727565b92505081905550600354600254610482919061075b565b60048190555050505050565b60045481565b64e8d4a5100081565b60008054906101000a900473ffffffffffffffffffffffffffffffffffffffff1681565b600160009054906101000a900473ffffffffffffffffffffffffffffffffffffffff1681565b60035481565b6000819050919050565b610500816104ed565b82525050565b600060408201905061051b60008301856104f7565b61052860208301846104f7565b9392505050565b600060208201905061054460008301846104f7565b92915050565b600080fd5b610558816104ed565b811461056357600080fd5b50565b6000813590506105758161054f565b92915050565b600080604083850312156105925761059161054a565b5b60006105a085828601610566565b92505060206105b185828601610566565b9150509250929050565b600073ffffffffffffffffffffffffffffffffffffffff82169050919050565b6000819050919050565b60006106006105fb6105f6846105bb565b6105db565b6105bb565b9050919050565b6000610612826105e5565b9050919050565b600061062482610607565b9050919050565b61063481610619565b82525050565b600060208201905061064f600083018461062b565b92915050565b600082825260208201905092915050565b7f4c697175696469747920616d6f756e7473206d7573742062652067726561746560008201527f72207468616e207a65726f000000000000000000000000000000000000000000602082015250565b60006106c2602b83610655565b91506106cd82610666565b604082019050919050565b600060208201905081810360008301526106f1816106b5565b9050919050565b7f4e487b7100000000000000000000000000000000000000000000000000000000600052601160045260246000fd5b6000610732826104ed565b915061073d836104ed565b9250828201905080821115610755576107546106f8565b5b92915050565b6000610766826104ed565b9150610771836104ed565b925082820261077f816104ed565b91508282048414831517610796576107956106f8565b5b5092915050565b7f4e487b7100000000000000000000000000000000000000000000000000000000600052601260045260246000fd5b60006107d7826104ed565b91506107e2836104ed565b9250826107f2576107f161079d565b5b828204905092915050565b6000610808826104ed565b9150610813836104ed565b925082820390508181111561082b5761082a6106f8565b5b92915050565b7f546f6b656e20726174696f206f662074686520706f6f6c206e6f74207265737060008201527f65637465642e202841424f564520544f4c4552414e4345290000000000000000602082015250565b600061088d603883610655565b915061089882610831565b604082019050919050565b600060208201905081810360008301526108bc81610880565b9050919050565b60006108ce826105bb565b9050919050565b6108de816108c3565b82525050565b60006060820190506108f960008301866108d5565b61090660208301856108d5565b61091360408301846104f7565b949350505050565b60008115159050919050565b6109308161091b565b811461093b57600080fd5b50565b60008151905061094d81610927565b92915050565b6000602082840312156109695761096861054a565b5b60006109778482850161093e565b91505092915050565b7f4368696b6f72697461207472616e73666572206661696c656400000000000000600082015250565b60006109b6601983610655565b91506109c182610980565b602082019050919050565b600060208201905081810360008301526109e5816109a9565b9050919050565b7f43796e6461207472616e73666572206661696c65640000000000000000000000600082015250565b6000610a22601583610655565b9150610a2d826109ec565b602082019050919050565b60006020820190508181036000830152610a5181610a15565b905091905056fea264697066735822122080b9efb90e52b06b623941f8e79d5730156c1629a491c9b98124182a46a0b3e664736f6c634300081c0033a26469706673582212204e333ed8694c80168b121cfcf374759ce230ed6d230db683c645617048e9170564736f6c634300081c0033",
  "linkReferences": {},
  "deployedLinkReferences": {}
}